:020000040800F2
:100000006804002029120008091000080B100008DD
:100010000D1000080F10000811100008000000006B
:1000200000000000000000000000000013100008A5
:100030001510000800000000171000081910000833
:1000400055120008591200085D12000861120008DC
:1000500065120008691200086D120008711200088C
:1000600075120008791200087D120008811200083C
:1000700085120008891200088D12000891120008EC
:1000800095120008991200081D1000089D12000822
:10009000A1120008A5120008A9120008AD1200085C
:1000A000B112000831100008B5120008B91200089A
:1000B000BF100008BD120008C1120008C5120008D8
:1000C000C9120008CD120008D1120008D51200088C
:1000D000D9120008DD120008E1120008E51200083C
:1000E000E9120008ED120008F1120008012200F0E8
:1000F0001F01DFF8E0338A40400943F820207047B1
:100100000901020007D5DFF8D02300F00F001044EA
:1001100000F8041C7047DFF8C4331954704700F02E
:10012000070010B5C0F10703052B28BF0423041DE9
:10013000072C34BF0020C01E012404FA03F35B1E09
:100140001940814004FA00F0401E1040084310BDE1
:10015000CB0D10B50C3003F004031818090D01F095
:100160001F01036807248C40A34302FA01F11943DD
:10017000016010BDDA4981B00A6802430A6009686B
:1001800008400090009801B070470000F0B58DB0B5
:1001900000F0DEF900F01FF9D24CA06840F0040036
:1001A000A060A068800810F00100FAD16846102114
:1001B00000F0E0F9CA48CC4E0168CC4D41F0200176
:1001C0000160026802F0200204920499026842F081
:1001D00004020260036803F00403049304990268B4
:1001E00042F0080202600022006800F0080004905B
:1001F000FF210498304600F09EFA01224FF470412E
:10020000284600F098FAFF2100F0DDF8304600F0B3
:10021000D1F94FF4704100F0D6F8284600F0CAF941
:10022000C6A100BFC7A6D1E9002331680091CDE97E
:10023000012303A800F078F908A800F075F94FF43D
:100240000070FFF797FF0820FFF794FF40F20111BD
:1002500008910022099208A9284600F0ADFAA448A6
:1002600000F065F901461220FFF74AFF1220FFF760
:100270003DFF002101910291204601A900F0FBFA07
:10028000002000906946204600F0DAFA012104912E
:100290004FF46020022103900022069105920792FC
:1002A00003A9204600F0FCFA616B082060F304010A
:1002B000616300228F492046FFF74AFF00F0C5F82E
:1002C00007A8102100F056F902A800F02DF900BF90
:1002D0009DA0894ED0E9002341F63F707060CDE9C2
:1002E000002364200021F0604FF08045B16031614F
:1002F000B1613560304600F001FB4FF4805007904B
:1003000007A9304600F0BDFB002102910391304661
:1003100002A900F015FC00210091019130466946C8
:1003200000F0D6FC6068754B40F020006060A0686B
:1003300040F00100A0600A247148C16841F0010149
:10034000C160026842F001020260E8686D4A40F054
:100350000100E86029686C4841F0010129606B4D9B
:100360006B492E680A2796FBF7F74FF47A7C97FBC8
:10037000FCF6A64696FBFEFE04FB1E661E600A27E0
:100380002E6896FBF7F74FF0640C97FBFCF6A64639
:1003900096FBFEFE04FB1E6616600A272E6896FB7F
:1003A000F7F7A44697FBFCF6A64696FBFEFE04FB79
:1003B0001E660E602E6896FBF4F696FBFCFC04FBB2
:1003C0001C660660CDE70091012200210291019296
:1003D00003926946704738B54E484F4C0168C908CA
:1003E000C90001600068216821F0F80141F0800136
:1003F0002160206840F00100206020688007FCD563
:10040000616821F0F0016160606820F4E060606084
:10041000606820F460506060606880088000606000
:10042000606810F00C0FFBD13C4D284600F076FCC4
:100430003B48016841F004010160284600F07AFC65
:10044000606820F44040606031BD18B585B06846F2
:1004500000F06AF84FF40060FFF78CFE2448284C47
:1004600000F065F801461920FFF74AFE1920FFF752
:100470003DFEC7200021ADF800000191C822039184
:100480008DF8101002926946204600F05BFC20684F
:1004900020F080002060A16822480140A160A1688E
:1004A00021F07001A160A068C008C000A060E068F1
:1004B00020F04000E060E06820F48040E060606888
:1004C00020F070006060A06820F08000A06006B09E
:1004D00010BD000000E100E018ED00E000E400E0E5
:1004E000181002400024014000080140000C0140A7
:1004F0000CED00E0080080031000002050000020F8
:10050000002C0140540000205C000020600000200E
:1005100058000020002002400010024000127A0023
:1005200010E000E0F8BFFFFF142100F023B80068DE
:1005300000220021C0F30220F1E5000000000000CD
:1005400000000000000000000000000000000000AB
:1005500080B50748016841F010010160032000F0F8
:1005600034FC002000F086FC00F0A4FC002002BD5A
:1005700000200240002200F0DBBC30B4002513E074
:1005800050F8042BD30744BFA9F101039A18091F9F
:10059000042942F8045BFAD213468C0744BF158045
:1005A0009B1CC90748BF1D7050F8041B0029E7D1E8
:1005B00030BC70472DE9F843024600200025604B0F
:1005C000DFF8809101270E68AF403E40BE4240F008
:1005D000AC804C686CB3012C20D0022C23D0032CAF
:1005E00032D0112C1CD0122C20D0DFF85CE17445E5
:1005F0001CBFDFF858E174451BD0DFF854E17445A7
:100600001CBFDFF850E1744513D0DFF84CE17445AE
:100610001CBFDFF848E174450BD016E0C86814E051
:10062000C868001D11E0C86808300EE0C8680C30CA
:100630000BE0886808B9042007E0012819BF0820EA
:1006400057610820176100E00020B6F5807F03D2D3
:1006500094464FEA850E05E0A5F1080402F1040C6A
:100660004FEA840E0F27DCF8008007FA0EF428EA20
:10067000040400FA0EFE4EEA0404CCF800404C6874
:10068000E40052D5D9F80040DFF8D4E044F001048A
:10069000C9F800404FEA950CD9F8004004F0010475
:1006A00000944FEA8508009C5EF82C4008F00C0886
:1006B00007FA08F724EA07072A4CA24208BF0024D9
:1006C0000ED0294CA24208BF012409D0274CA242D7
:1006D00008BF022404D0264CA2420CBF03240424E9
:1006E00004FA08F427434EF82C70F7434C68E403EF
:1006F0001C684CBF34433C401C604C68A4035C68DD
:100700004CBF34433C405C604C68E4029C684CBF86
:1007100034433C409C604C68A40203D5DF683E43F0
:10072000DE6002E0DE683740DF606D1C0F2D7FF673
:1007300049AFBDE8F18302B90904016170470000C7
:1007400000040140181002400000111000001210B7
:1007500000002110000022100000311000003210B3
:100760000800014000080140000C01400010014059
:100770000014014030B500F010F80F2503E030B54B
:1007800000F00BF803259B00B1FA81F19D40890030
:10079000AC438A402243026030BD00EB116091FA05
:1007A000A1F3B3FA83F391FAA1F10468704730B56D
:1007B000FFF7F3FF0425E6E72DE9F0410D46044677
:1007C0002E683602360C96FAA6F0B0FA80F7FFB221
:1007D00036FA07F031D0C0072DD5082F07D34FF0D8
:1007E0000110A7F10801884040F0806803E040F262
:1007F000011000FA07F86A6841462046FFF7BAFF81
:100800002869E1684FEA1822914392FAA2F2B2FAFB
:1008100082F290400843E0606868012818BF092808
:1008200009D1AA6841462046FFF7A9FFEA68414678
:100830002046FFF7BCFF7F1CCAE70120BDE8F0811E
:1008400010B52B4A2B4C126824680346012002F095
:10085000010204F0010422430BD1096821B15A6856
:1008600022F47022114302E0596821F4702159608A
:1008700010BD002010BD30B5024601209368DC0792
:100880000CD455684B6825F480751D4355609468F9
:10089000096824F400640C43946030BD002030BD2E
:1008A00070B583680122DC071DD44B6833B14568FD
:1008B0008C6825F468452B43234302E0436823F406
:1008C0006843436086680C4D0B68CC682E401E431D
:1008D0000B6926431E438660C46A496824F4700489
:1008E0000C43C46200E00022104670BD000000000E
:1008F0000824014008280140FDFEF1FF38B504003E
:1009000001D1012032BD00F014F818B900F00DF843
:1009100000F0EDFAFFE702206870211D206800F06A
:1009200034F901206870002032BD00212970204672
:10093000704704F13C056878704710B5044620689C
:1009400001698A0715D5C1688A0712D56FF00201BF
:10095000016101222277806910F0030F204602D046
:1009600000F0FFFA03E000F0FDFA00F087F8002045
:100970002077206801694A0715D5C1684A0712D552
:100980006FF00401016102222277806910F4407F38
:10099000204602D000F0E5FA03E000F0E3FA00F0B0
:1009A0006DF800202077206801690A0715D5C16815
:1009B0000A0712D56FF00801016104222277C0698D
:1009C00010F0030F204602D000F0CBFA03E000F055
:1009D000C9FA00F053F80020207720680169CA06A0
:1009E00015D5C168CA0612D56FF010010161082241
:1009F0002277C06910F4407F204602D000F0B1FA9F
:100A000003E000F0AFFA00F039F80020207720680A
:100A10000169CA0708D5C168CA0705D56FF0010189
:100A20000161204600F09FFA206801690A0608D596
:100A3000C1680A0605D56FF080010161204600F00B
:100A400093FA206801694A0608D5C1684A0605D5A7
:100A50006FF040010161204600F087FA20680169CB
:100A60008A060AD5C1688A0607D56FF020010161A0
:100A70002046BDE8104000F079BA10BD204600F0D5
:100A800076BA38B500F069F801D1022032BD0120F4
:100A9000207002226270DFF8B8012A689368034070
:100AA00093600A68002A37D0102A37D0202A37D01E
:100AB000302A37D0402A2BD0502A1ED0602A20D08E
:100AC000702A0BD0B2F5805F03D0B2F5005F0CD076
:100AD0002CE028688168C908C9000CE000F02BF8F8
:100AE0002868816841F0770105E000F024F8286863
:100AF000816841F48041816018E000F018F85021CD
:100B000011E0CA684968286800F0BBF860210AE073
:100B100000F00DF8402106E0002104E0102102E081
:100B2000202100E03021286800F0BDF821E0CA68EB
:100B30004968286896E0CB684A6889682868BAE0FE
:100B400038B500F00AF801D1022032BD00F017F8E4
:100B50002868C16821F0400105E0054605F13C0424
:100B6000207801287047C1602868C16821F480415D
:100B7000C1600120607000212170002032BD012081
:100B800020700222627028462EE070B5314E036854
:100B9000314C324DB04218BFB0F1804F03D0A84263
:100BA00018BFA04209D14A6823F070031343B04232
:100BB0001CBFB0F1804FA84201D0A04203D1CA6847
:100BC00023F4407313434A6923F080031343036003
:100BD000B0428B68C3620A68826202D10969204A06
:100BE00011600123436170BD10B5006884684B68D3
:100BF0000A6824F070041C43E40842EAC4048460D8
:100C00004C68402C0BD0502C17D0602C1AD0702C74
:100C10001DD10B698A68C968BDE810404BE0026AC3
:100C2000036A5B085B0003628369096923F0F003D0
:100C300043EA01138361026210BD0A698968BDE855
:100C400010400FE00A698968BDE8104019E010BD46
:100C50008800FFFF002C0140000800400004004015
:100C6000302C014010B5036A046A64086400046211
:100C700023F00A03846924F0F00444EA0214846136
:100C800023E010B5036A23F0100303628369046A4A
:100C900023F4704343EA023324F0A004836144EA5E
:100CA0000114046210BD826822F07002114341F009
:100CB00007018160704710B5846824F47F442143A4
:100CC000114341EA0321816010BD1943016210BD47
:100CD00030B500F13C031A78012A01D1022030BD61
:100CE00001221A7002245C700268546824F07004B7
:100CF0005460046865680A68154365600268946812
:100D000024F0800494600268946848680443946006
:100D1000012159700020187030BD00004FF47A7224
:100D20000649B0FBF2F0401E486000238B600520AE
:100D300008607047024908607047000010E000E05A
:100D40000C00002070B5164E0368174C154DB042CC
:100D500018BFB0F1804F03D0A84218BFA04209D1FC
:100D60004A6823F070031343B0421CBFB0F1804FB8
:100D7000A84201D0A04203D1CA6823F440731343B0
:100D80000360B0428A68C2620A88826202D1097C2A
:100D9000064A1160416941F001014161012070BDC5
:100DA000002C01400004004000080040302C0140AD
:100DB0000901020006D5294A00F00F00104400F88E
:100DC000041C7047264B19547047264B19684FF680
:100DD000FF020002114000F4E0600843224908438A
:100DE0001860704738B51F4B1C68C4F30223C3F169
:100DF0000704052C28BF04241D1D072D34BF002324
:100E0000DB1E012505FA04F4641E2140994005FA11
:100E100003F35B1E1A401143BDE83440C8E70122CA
:100E200000F01F01114BFFE78A40400943F82020E2
:100E3000704710B5401EB0F1807F01D3012010BD76
:100E40000B4C60600F214FF0FF30FFF7B1FF002126
:100E5000A16007202060002010BD000018ED00E018
:100E600000E400E00CED00E00000FA0500E100E025
:100E700010E000E038B50D4D0D4B2A7804464FF4D4
:100E80007A711868B1FBF2F2B0FBF2F0FFF7D1FF14
:100E900050B9102C08D2002221464FF0FF30FFF746
:100EA000A1FFAC60002032BD012032BD0000002057
:100EB0000C0000201B4881B0016841F00101016075
:100EC000026802F0010200920099426842F08052EA
:100ED0004260406800F0805000900098124801681D
:100EE00021F0E06141F00071016001B070470068DD
:100EF000B0F1804F00D0704780B50C48016841F0D8
:100F0000010101600022006800F001000090002152
:100F100000981C20FFF766FFBDE802401C20FFF789
:100F20007EBF000018100240040001401C10024067
:100F300000B500BF130096469446103928BFA0E8BC
:100F40000C50FAD85FEA417C28BF0CC048BF40F87B
:100F5000042BC90728BF20F8022B48BF00F8012B3B
:100F600000BD7047704770477047704770477047C3
:100F700038B50446584D0122FF212846FFF7DBFB18
:100F8000102C40D8DFE804F0090C0F1215181B1EB6
:100F9000212326292C2F3235380000223F212DE035
:100FA000002206212AE000225B2127E000224F21B7
:100FB00024E00022662121E000226D211EE00022B3
:100FC0007D211BE00022072118E0002215E000220D
:100FD0006F2113E00022772110E000227C210DE038
:100FE000002239210AE000225E2107E00022792157
:100FF00004E00022712101E001227F212846BDE8A2
:101000003840FFF798BB31BD7047FEE7FEE7FEE7CB
:10101000FEE770477047704700F078B82F48304AB5
:101020006FF002010160C06C80B210607047000078
:1010300070B52C492C4C2D4D6FF00100086000223A
:1010400026684FF470412846FFF775FB721006EBD7
:1010500092708010A6EB8006032E15D8DFE806F00C
:101060000E0A060201224FF400410AE001224FF469
:10107000804106E001224FF4005102E001224FF4CA
:1010800080512846FFF757FB2068411000EB917212
:101090009210A0EB820003280DD8DFE800F00204D4
:1010A0000608134804E0134802E0134800E0134820
:1010B0000068FFF75DFF2068401C206070BD10498C
:1010C0006FF0010008600F48026842F4A00202605D
:1010D0000D48FFF732BC0000000801400024014029
:1010E00060000020102C014064000020000C014032
:1010F0005000002054000020580000205C00002018
:1011000010000040082401401000002002494A68F5
:10111000087882184A6070470000002010B50E4A17
:101120000E49106840F00100106053680C480B40F5
:101130005360146804401460116821F48021116028
:101140004FF41F01506820F4FE00506091604FF092
:101150000060044A106010BD001002400000FFF85B
:10116000FFFFF6FE08ED00E030B450F8041B79B143
:101170000268436802440830DC0744BFA9F1010457
:10118000E31852F8045B43F8045B091FF9D1ECE75C
:1011900030BC704710B5074979441831064C7C447F
:1011A000163404E00A68081D114488470146A1422C
:1011B000F8D110BD0800000028000000BFF3FFFFB9
:1011C0005800000010000020000000009DFFFFFFFD
:1011D000100000006400000000000020000000007B
:1011E00000F00DF8002801D0FFF7D4FFAFF3008026
:1011F0000020AFF30080FEF7C9FF00F002F80120E5
:10120000704700F001B800000746384600F002F8C9
:10121000FBE7000080B5AFF30080024A1100182000
:10122000ABBEFBE7260002000148804701480047AB
:101230001D11000849120008010000000000000014
:101240001000000000A24A04AFF30080AFF300805A
:10125000FFF7C6FFFFF7FEBFFFF7FEBFFFF7FEBFBA
:10126000FFF7FEBFFFF7FEBFFFF7FEBFFFF7FEBFB2
:10127000FFF7FEBFFFF7FEBFFFF7FEBFFFF7FEBFA2
:10128000FFF7FEBFFFF7FEBFFFF7FEBFFFF7FEBF92
:10129000FFF7FEBFFFF7FEBFFFF7FEBFFFF7FEBF82
:1012A000FFF7FEBFFFF7FEBFFFF7FEBFFFF7FEBF72
:1012B000FFF7FEBFFFF7FEBFFFF7FEBFFFF7FEBF62
:1012C000FFF7FEBFFFF7FEBFFFF7FEBFFFF7FEBF52
:1012D000FFF7FEBFFFF7FEBFFFF7FEBFFFF7FEBF42
:1012E000FFF7FEBFFFF7FEBFFFF7FEBFFFF7FEBF32
:0412F000FFF7FEBF47
:040000050800124994
:00000001FF
